:100000009DC20000B8C20000B6C20000B4C2000029
:10001000B2C20000B0C20000AEC20000ACC200001C
:10002000AAC20000A8C20000A6C20000A4C200002C
:10003000A2C20000A0C200009EC200009CC200003C
:100040009AC2000098C20000E3C2000094C20000FF
:1000500092C2000090C200008EC200008CC200005C
:100060008AC2000088C2000086C2000084C200006C
:1000700082C2000080C200007EC200007CC200007C
:100080007AC2000078C2000076C2000041540D0A16
:100090000000000000000000000000000000000060
:1000A0000000000000000000000000000000000050
:1000B0000000000000000000000000000000000040
:1000C0000000000000000000000000000000000030
:1000D0000000000000000000000000000000000020
:1000E0000000000000000000000000000000000010
:1000F00041542B5253540D0A000000000000000030
:1001000000000000000000000000000000000000EF
:1001100000000000000000000000000000000000DF
:1001200000000000000000000000000000000000CF
:1001300000000000000000000000000000000000BF
:1001400000000000000000000000000000000000AF
:100150000000000041542B474D520D0A00000000E2
:10016000000000000000000000000000000000008F
:10017000000000000000000000000000000000007F
:10018000000000000000000000000000000000006F
:10019000000000000000000000000000000000005F
:1001A000000000000000000000000000000000004F
:1001B000000000000000000041542B43574D4F4405
:1001C000453D310D0A000000000000000000000065
:1001D000000000000000000000000000000000001F
:1001E000000000000000000000000000000000000F
:1001F00000000000000000000000000000000000FF
:1002000000000000000000000000000000000000EE
:1002100000000000000000000000000041542B43DB
:1002200049504D55583D300D0A00000000000000B7
:1002300000000000000000000000000000000000BE
:1002400000000000000000000000000000000000AE
:10025000000000000000000000000000000000009E
:10026000000000000000000000000000000000008E
:10027000000000000000000000000000000000007E
:1002800041542B4349505345525645523D312C3130
:100290003131310D0A0000000000000000000000B4
:1002A000000000000000000000000000000000004E
:1002B000000000000000000000000000000000003E
:1002C000000000000000000000000000000000002E
:1002D000000000000000000000000000000000001E
:1002E0000000000041542B43575341503D225445D8
:1002F00053545F56312E35222C2230303030222C90
:10030000332C300D0A000000000000000000000047
:1003100000000000000000000000000000000000DD
:1003200000000000000000000000000000000000CD
:1003300000000000000000000000000000000000BD
:10034000000000000000000041542B43574A415078
:100350003D22696F7436222C22696F74363030303A
:1003600030220D0A00000000000000000000000024
:10037000000000000000000000000000000000007D
:10038000000000000000000000000000000000006D
:10039000000000000000000000000000000000005D
:1003A00000000000000000000000000041542B434A
:1003B000494653520D0A00000000000000000000F2
:1003C000000000000000000000000000000000002D
:1003D000000000000000000000000000000000001D
:1003E000000000000000000000000000000000000D
:1003F00000000000000000000000000000000000FD
:1004000000000000000000000000000000000000EC
:1004100041542B43495053544152543D225443506C
:10042000222C22636C6F75642E7061726B2D636C6D
:100430006F75642E636F31392E6B72222C38300D3C
:100440000A000000000000000000000000000000A2
:10045000000000000000000000000000000000009C
:10046000000000000000000000000000000000008C
:100470000000000041542B43495053454E443D3643
:10048000370D0A000000000000000000000000001E
:10049000000000000000000000000000000000005C
:1004A000000000000000000000000000000000004C
:1004B000000000000000000000000000000000003C
:1004C000000000000000000000000000000000002C
:1004D0000000000000000000474554202F70726F9C
:1004E0006A6563742F76696577322E70687020486C
:1004F0005454502F312E300D0A486F73743A2063D4
:100500006C6F75642E7061726B2D636C6F75642EE9
:10051000636F31392E6B720D0A0D0A000000000066
:1005200000000000000000000000000000000000CB
:1005300000000000000000000000000011241FBEA9
:10054000CFEFD0E1DEBFCDBF11E0A0E0B1E0ECE540
:10055000FBE000E00BBF02C007900D92AA32B1078A
:10056000D9F721E0AAE2B1E001C01D92A137B2079C
:10057000E1F7CAD1F1C244CD5D9BFECF8CB908959D
:10058000CF93DF93EC0102C02196F6DF88818111C1
:10059000FBCFDF91CF910895CF93DF93CDB7DEB737
:1005A000C456D1090FB6F894DEBF0FBECDBFBC0153
:1005B000CE01019697D2CE010196E2DF8FE39CE94E
:1005C0000197F1F700C00000CC59DF4F0FB6F89447
:1005D000DEBF0FBECDBFDF91CF91089590919B00FC
:1005E00095FFFCCF80939C00089590919B0095FF10
:1005F000FCCF80939C000895CF93DF93EC0102C061
:100600002196F3DF88818111FBCFDF91CF9108958F
:100610001F920F920FB60F9211240BB60F920F93E9
:100620001F932F933F934F935F936F937F938F937A
:100630009F93AF93BF93CF93DF93EF93FF93CCB18F
:10064000CA3079F5E0913401F0E0ED5AFE4F1082A6
:1006500060E071E083E591E04FD2892B29F410929C
:100660003301109232011BBA64E071E083E591E03E
:1006700043D2892B31F410923301109232018FE072
:100680008BBB68E071E083E591E036D2892B31F4D1
:1006900010923301109232018FE08BBB1092340123
:1006A0000EC080913401893050F4E091340181E032
:1006B0008E0F80933401F0E0ED5AFE4FC083CC32B0
:1006C00069F480913001909131010196909331014C
:1006D0008093300110922F0110922E0180913001F1
:1006E000909131019C01235031092430310508F0EB
:1006F000F4C08330910589F420912E0130912F01AF
:100700002F30310554F4F901EE59FE4FC0832F5FAD
:100710003F4F30932F0120932E018430910589F4AF
:1007200020912E0130912F012F30310554F4F90121
:10073000EC5BFE4FC0832F5F3F4F30932F01209320
:100740002E018530910589F420912E0130912F01E1
:100750002F30310554F4F901EB5CFE4FC0832F5F5D
:100760003F4F30932F0120932E01069709F0B5C01B
:10077000109231011092300110922D0110922C0133
:1007800060E171E082E691E0B4D1EC0125C0809196
:100790002C0190912D01019690932D0180932C01B5
:1007A00060E171E080E090E0A4D1EC0180912C0147
:1007B00090912D01039781F482E191E01DDFCE013C
:1007C0001BDF00E010E005C08FEF90E007DF0F5F58
:1007D0001F4F03301105C4F3CD2BC9F62FEF81EE67
:1007E00094E0215080409040E1F700C0000010925A
:1007F0002D0110922C0160E171E084E491E079D147
:10080000EC0125C080912C0190912D0101969093CF
:100810002D0180932C0160E171E080E090E069D1CE
:10082000EC0180912C0190912D01039781F48AE1D4
:1008300091E0E2DECE01E0DE00E010E005C08FEFE7
:1008400090E0CCDE0F5F1F4F03301105C4F3CD2BBA
:10085000C9F62FEF81EE94E0215080409040E1F7FF
:1008600000C0000010922D0110922C0160E171E097
:1008700085E391E03ED1EC0125C080912C0190915F
:100880002D01019690932D0180932C0160E171E080
:1008900080E090E02ED1EC0180912C0190912D010F
:1008A000039781F482E291E0A7DECE01A5DE00E0AD
:1008B00010E005C08FEF90E091DE0F5F1F4F033017
:1008C0001105C4F3CD2BC9F62FEF81EE94E0215032
:1008D00080409040E1F700C00000FF91EF91DF9170
:1008E000CF91BF91AF919F918F917F916F915F91C8
:1008F0004F913F912F911F910F910F900BBE0F9031
:100900000FBE0F901F9018958FEF8ABB8BBB9EEF89
:1009100092B91BB89AB198619AB91092900027E6E3
:1009200029B998E99AB996E091BB10929B00EAE93F
:10093000F0E0908198619083109298002093990044
:1009400078948BBB81E090E09093330180933201E7
:1009500080EF90E021DE8091320190913301019788
:10096000D1F32FEF89E698E1215080409040E1F7E4
:1009700000C000008FEF8BBB81E090E090933301CB
:10098000809332018CE890E007DE809132019091F3
:1009900033010197D1F32FEF81EE94E02150804095
:1009A0009040E1F700C000008FEF8BBB81E090E04A
:1009B000909333018093320188EB91E0EDDD8091DB
:1009C0003201909133010197D1F32FEF81EE94E042
:1009D000215080409040E1F700C0000080EF8BBBC9
:1009E00081E090E0909333018093320188E493E0BA
:1009F000D3DD80913201909133010197D1F32FEF34
:100A000081EE94E0215080409040E1F700C000006A
:100A10008FEF8BBB81E090E09093330180933201A4
:100A20008CE192E0B9DD8091320190913301019720
:100A3000D1F32FEF81EE94E0215080409040E1F718
:100A400000C000008FEF8BBB81E090E090933301FA
:100A50008093320180E194E09FDD8091320190919A
:100A600033010197D1F310923101109230012FEF31
:100A700081EE94E0215080409040E1F700C00000FA
:100A80008FEF8BBB81E090E0909333018093320134
:100A900084E794E081DD80913201909133010197E8
:100AA000D1F38FE99FE00197F1F700C000008FEFCD
:100AB0008BBB81E090E0909333018093320188ED0D
:100AC00094E06ADD80913201909133010197D1F376
:100AD0009FEF21EE84E0915020408040E1F700C07C
:100AE0000000B0CFFB01DC0105900D920020E1F782
:100AF00008954AE251E009C0FB01DC018D910190AB
:100B000080190110D9F3990B0895FA01A191B081D0
:100B1000009719F41097E1F0CD01DC01CD010D90A3
:100B2000002011F4C00113C0FB012191222319F010
:100B30002015D9F7F3CFFB012191201519F41E924E
:100B4000119606C02223C1F70D900020A1F7D00115
:0C0B5000FA01A193B0830895F894FFCF40
:100B5C004F4B0D0049500D00434C4F5345440D0075
:100B6C0022006E302E76616C3D006E312E76616CFB
:0A0B7C003D006E322E76616C3D00E4
:00000001FF
